:100000000C9403010C9430010C9430010C943001D9
:100010000C9430010C9430010C9430010C9430019C
:100020000C9430010C9430010C9430010C9430018C
:100030000C9430010C9430010C9430010C9430017C
:100040000C9430010C9430010C9430010C9430016C
:100050000C9444020C9430010C9430010C9462070F
:100060000C9430010C9470020C94BC030C9430017D
:100070000C9430010C9430010C9430010C9430013C
:100080000C9430010C9430010C9430010C9430012C
:100090000C94B0020C94FB030C9430010C943001CE
:1000A0000C9430010C9430010C9430010C9430010C
:1000B0000C9430010C9430010C9430010C943001FC
:1000C0000C9430010C9430010C9430010C94F0022B
:1000D0000C943A040C9430010C9430030C94790481
:1000E0000C94300100002100240027002A002D007C
:1000F0003000330001010000040107010A01000083
:100100002200250028002B002E00310034000201BF
:100110000000050108010B0100002000230026005B
:1001200029002C002F00320000010000030106010D
:10013000090105050505070508080808020202026D
:100140000A0A080804040404010101010101010173
:100150000303030303030303040707070C0C0C0C3E
:100160000C0C0C0C02020202060606060606060627
:100170000B0B0B0B0B0B0B0B0102102020080810B4
:100180002040102040800201020108040201010207
:1001900004081020408080402010080402018004E0
:1001A000020180402010080402010804020101023B
:1001B0000408102040800102040810204080000044
:1001C000090A02080B0C0D070603040100000000D9
:1001D000000000000000000000000000000000001F
:1001E0000000000000000000000011100F000000DF
:1001F00000000000000000000000000000000000FF
:1002000000000000EC0511241FBECFEFD1E2DEBFDD
:10021000CDBF00E00CBF12E0A0E0B2E0E8EEF2E1FA
:1002200000E00BBF02C007900D92A031B107D9F7D3
:100230001BBE14E0A0E1B2E001C01D92AF3CB107CB
:10024000E1F712E0C6E0D2E004C02297FE010E946E
:100250006E09C430D107C9F70E9422070C947209B5
:100260000C9400009B01AC0180E18093810010920E
:100270008000220F331F441F551F220F331F441FBE
:10028000551F220F331F441F551F203080E03807B1
:1002900081E0480780E0580708F452C0203080E031
:1002A000380788E0480780E0580728F1203080E0D0
:1002B000380780E4480780E0580708F449C0203038
:1002C00080E0380780E0480781E0580708F44FC015
:1002D000203080E0380780E0480784E0580708F4C1
:1002E00052C085E080931B028FEF9FEF90931A021C
:1002F000809319020EC082E080931B0273E0569532
:100300004795379527957A95D1F730931A02209320
:1003100019028091190290911A029093870080939C
:10032000860080911B0280618093810087EE91E0BE
:1003300090931D0280931C0281E080936F000895CA
:1003400081E080931B0230931A0220931902E1CFBF
:1003500083E080931B0266E0569547953795279575
:100360006A95D1F730931A0220931902D2CF84E014
:1003700080931B02BB27A52F942F832F90931A02E3
:1003800080931902C6CF85E080931B028AE05695C0
:100390004795379527958A95D1F730931A02209380
:1003A0001902B7CF8DE061E00E941A08089587E036
:1003B00061E00E941A0887E061E00E94DC0808956D
:1003C000AB01BC018EE394E00E94B80408958091D3
:1003D0001002816080931002089560911102709163
:1003E0001202809113029091140229E130E040E062
:1003F00050E00E944A09611571058105910509F0D7
:1004000008958DE00E94120961E068278DE00E9446
:10041000DC0808950E94AA076093150270931602E3
:1004200080931702909318028091100280FF089524
:100430000E94ED018091110290911202A09113028D
:10044000B09114020196A11DB11D809311029093E9
:100450001202A0931302B0931402809110028E7FB7
:1004600080931002089560E072EC81E090E00E94B9
:10047000E00160E27EE480E090E00E9432010E94B0
:10048000D7010E94D20108951F920F920FB60F92CA
:100490000BB60F9211242F933F934F935F936F935B
:1004A0007F938F939F93AF93BF93EF93FF93E091CD
:1004B0001C02F0911D021995FF91EF91BF91AF9130
:1004C0009F918F917F916F915F914F913F912F916C
:1004D0000F900BBE0F900FBE0F901F9018950895B0
:1004E0001F920F920FB60F920BB60F9211242F93FB
:1004F0003F934F938F939F93EF93FF938091C0000F
:1005000082FD2AC04091C60020915E0230915F02B8
:100510002F5F3F4F2F733070809160029091610286
:100520002817390759F0E0915E02F0915F02E25E10
:10053000FD4F408330935F0220935E02FF91EF9165
:100540009F918F914F913F912F910F900BBE0F90E4
:100550000FBE0F901F9018958091C600EFCF0895A1
:100560001F920F920FB60F920BB60F9211242F937A
:100570003F934F938F939F93EF93FF938091C80086
:1005800082FD2AC04091CE002091E6023091E70220
:100590002F5F3F4F2F7330708091E8029091E902F6
:1005A0002817390759F0E091E602F091E702EA5581
:1005B000FD4F40833093E7022093E602FF91EF91D5
:1005C0009F918F914F913F912F910F900BBE0F9064
:1005D0000FBE0F901F9018958091CE00EFCF089519
:1005E0001F920F920FB60F920BB60F9211242F93FA
:1005F0003F934F938F939F93EF93FF938091D000FE
:1006000082FD2AC04091D60020916E0330916F0385
:100610002F5F3F4F2F733070809170039091710363
:100620002817390759F0E0916E03F0916F03E25DEE
:10063000FC4F408330936F0320936E03FF91EF9143
:100640009F918F914F913F912F910F900BBE0F90E3
:100650000FBE0F901F9018958091D600EFCF089590
:100660001F920F920FB60F920BB60F9211242F9379
:100670003F934F938F939F93EF93FF93809130011C
:1006800082FD2AC0409136012091F6033091F70394
:100690002F5F3F4F2F7330708091F8039091F903D3
:1006A0002817390759F0E091F603F091F703EA545F
:1006B000FC4F40833093F7032093F603FF91EF91B3
:1006C0009F918F914F913F912F910F900BBE0F9063
:1006D0000FBE0F901F90189580913601EFCFE091DB
:1006E0004A04F0914B04E05CFF4F8191919120818D
:1006F0003181821B930B8F739070892BD1F5E09120
:100700006C04F0916D04E05CFF4F81919191208128
:100710003181821B930B8F739070892B39F5E09197
:100720008E04F0918F04E05CFF4F819191912081C4
:100730003181821B930B8F739070892BA1F4E09110
:10074000B004F091B104E05CFF4F81919191208160
:100750003181821B930B8F739070892B09F408955C
:100760000E942F0308950E94EF02E9CF0E94AF027A
:10077000D6CF0E946F02C3CF1F920F920FB60F9277
:100780000BB60F9211242F933F938F939F93EF9368
:10079000FF932091A2023091A3028091A402909134
:1007A000A5022817390709F1E091A402F091A502EA
:1007B000EE59FD4F20818091A4029091A5020196EF
:1007C0008F7390709093A5028093A4022093C6002B
:1007D000FF91EF919F918F913F912F910F900BBEC1
:1007E0000F900FBE0F901F9018958091C1008F7DC4
:1007F0008093C100EDCF1F920F920FB60F920BB6F0
:100800000F9211242F933F938F939F93EF93FF9316
:1008100020912A0330912B0380912C0390912D037A
:100820002817390709F1E0912C03F0912D03E651C7
:10083000FD4F208180912C0390912D0301968F73A1
:10084000907090932D0380932C032093CE00FF9102
:10085000EF919F918F913F912F910F900BBE0F9031
:100860000FBE0F901F9018958091C9008F7D8093C7
:10087000C900EDCF1F920F920FB60F920BB60F92D9
:1008800011242F933F938F939F93EF93FF93209186
:10089000B2033091B3038091B4039091B50328174C
:1008A000390709F1E091B403F091B503EE58FC4F1C
:1008B00020818091B4039091B50301968F7390705D
:1008C0009093B5038093B4032093D600FF91EF91EA
:1008D0009F918F913F912F910F900BBE0F900FBE64
:1008E0000F901F9018958091D1008F7D8093D1003B
:1008F000EDCF1F920F920FB60F920BB60F921124ED
:100900002F933F938F939F93EF93FF9320913A04FC
:1009100030913B0480913C0490913D0428173907A5
:1009200009F1E0913C04F0913D04E650FC4F208138
:1009300080913C0490913D0401968F739070909348
:100940003D0480933C0420933601FF91EF919F91E9
:100950008F913F912F910F900BBE0F900FBE0F9074
:100960001F901895809131018F7D80933101EDCFDB
:10097000DF92EF92FF920F931F93CF93DF93EC01DF
:100980007A018B01DD24403081EE580780E0680752
:1009900080E0780721F1DD24D394EC89FD8981E0A2
:1009A00090E008A002C0880F991F0A94E2F78083A4
:1009B00060E079E08DE390E0A80197010E944A0988
:1009C00021503040404050405695479537952795E7
:1009D00080E120303807D0F0DD20C1F0DD24EC8943
:1009E000FD89108260E874E88EE190E0A80197012B
:1009F0000E944A092150304040405040569547954A
:100A00003795279580E12030380730F7E889F98954
:100A10003083EA89FB89208319A2EE89FF8940810E
:100A200021E030E0C9010C8C02C0880F991F0A94A4
:100A3000E2F7482B4083EE89FF894081C9010D8C84
:100A400002C0880F991F0A94E2F7482B4083EE8971
:100A5000FF894081C9010E8C02C0880F991F0A943A
:100A6000E2F7482B4083EE89FF8980810F8C02C01A
:100A7000220F331F0A94E2F7209528232083DF9169
:100A8000CF911F910F91FF90EF90DF900895DC01BF
:100A90001C96ED91FC911D97E05CFF4F21913191E7
:100AA00080819181281B390B2F733070C901089503
:100AB000DC011C96ED91FC911D97E05CFF4F2081BD
:100AC0003181E054F040DF01AE5BBF4F8D919C91CE
:100AD00011972817390749F08D919C91E80FF91F5C
:100AE0008081282F30E0C90108952FEF3FEFC90121
:100AF0000895DC011C96ED91FC911D97E05CFF4F81
:100B000020813181E054F040DF01AE5BBF4F8D9119
:100B10009C9111972817390791F08D919C9111970D
:100B2000E80FF91F20818D919C91119701968F7389
:100B3000907011969C938E9330E0C90108952FEF29
:100B40003FEFC9010895FC0181A1882311F411A28E
:100B50000895A489B5898C9186FFFDCF11A20895CF
:100B6000CF93DF93EC01AE85BF85AD01405C5F4F55
:100B7000FA01208131812F5F3F4F2F733070FD01CB
:100B8000EE5BFF4F8081918128173907D9F3FA0175
:100B900080819181A80FB91F6C93EE85FF85E05C81
:100BA000FF4F31832083EE89FF89208181E090E02F
:100BB0000F8C02C0880F991F0A94E2F7282B20831C
:100BC00081E089A3EC89FD8980818064808381E054
:100BD00090E0DF91CF9108951F93109241041092FD
:100BE000400428EE33E040E050E02093420430938C
:100BF0004304409344045093450464E072E07093CE
:100C00003F0460933E048EE192E090934B04809306
:100C10004A0482E692E090934D0480934C0485EC64
:100C200090E090934F0480934E0484EC90E0909376
:100C300051048093500480EC90E09093530480938F
:100C4000520481EC90E0909355048093540482EC1C
:100C500090E0909357048093560486EC90E0909334
:100C600059048093580414E010935A04B3E0B093ED
:100C70005B04A7E0A0935C04F5E0F0935D04E1E081
:100C8000E0935E0410926304109262042093640463
:100C90003093650440936604509367047093610435
:100CA0006093600486EA92E090936D0480936C04F4
:100CB0008AEE92E090936F0480936E048DEC90E046
:100CC00090937104809370048CEC90E09093730483
:100CD0008093720488EC90E0909375048093740480
:100CE00089EC90E090937704809376048AEC90E00E
:100CF00090937904809378048EEC90E090937B0439
:100D000080937A0410937C04B0937D04A0937E04B6
:100D1000F0937F04E0938004109285041092840481
:100D20002093860430938704409388045093890469
:100D300070938304609382048EE293E090938F0417
:100D400080938E0482E793E09093910480939004C3
:100D500085ED90E0909393048093920484ED90E06D
:100D6000909395048093940480ED90E09093970481
:100D70008093960481ED90E0909399048093980479
:100D800082ED90E090939B0480939A0486ED90E02E
:100D900090939D0480939C0410939E04B0939F04B1
:100DA000A093A004F093A104E093A2041092A704DE
:100DB0001092A6042093A8043093A9044093AA0497
:100DC0005093AB047093A5046093A40486EB93E066
:100DD0009093B1048093B0048AEF93E09093B304AE
:100DE0008093B20485E391E09093B5048093B404BA
:100DF00084E391E09093B7048093B60480E391E09C
:100E00009093B9048093B80481E391E09093BB047C
:100E10008093BA0482E391E09093BD048093BC0474
:100E200086E391E09093BF048093BE041093C004C6
:100E3000B093C104A093C204F093C304E093C4042C
:100E40001F9108950E94B8070E9433020E940A026F
:100E50008FE693E0892B29F00E946F030E940A021B
:100E6000FBCF0E940A020E940A02FBCFCF92DF92C0
:100E7000EF92FF920F931F93CF93DF937C016B014F
:100E8000EA0141155105D9F000E010E0D6016D915D
:100E90006D01D701ED91FC910190F081E02DC7012A
:100EA0001995080F191F219789F7C801DF91CF9174
:100EB0001F910F91FF90EF90DF90CF90089500E089
:100EC00010E0F3CF1F920F920FB60F9211242F93C1
:100ED0003F938F939F93AF93BF938091CA04909158
:100EE000CB04A091CC04B091CD043091CE040196F6
:100EF000A11DB11D232F2D5F2D3720F02D570196F9
:100F0000A11DB11D2093CE048093CA049093CB04FD
:100F1000A093CC04B093CD048091C6049091C704F3
:100F2000A091C804B091C9040196A11DB11D809380
:100F3000C6049093C704A093C804B093C904BF919A
:100F4000AF919F918F913F912F910F900FBE0F9076
:100F50001F9018958FB7F8942091CA043091CB0454
:100F60004091CC045091CD048FBFB901CA010895BE
:100F7000789484B5826084BD84B5816084BD85B574
:100F8000826085BD85B5816085BDEEE6F0E080813B
:100F900081608083E1E8F0E010828081826080835C
:100FA000808181608083E0E8F0E0808181608083DF
:100FB000E1EBF0E0808184608083E0EBF0E0808111
:100FC00081608083E1E9F0E08081826080838081BC
:100FD00081608083E0E9F0E0808181608083E1EAE4
:100FE000F0E0808182608083808181608083E0EA9C
:100FF000F0E0808181608083E1E2F1E080818260C5
:101000008083808181608083E0E2F1E08081816083
:101010008083EAE7F0E08081846080838081826061
:10102000808380818160808380818068808310924A
:10103000C1000895CF93DF93482F50E0CA0188582C
:101040009E4FFC0134914E5C5E4FFA0184918823DF
:10105000B9F090E0880F991FFC01EC51FF4FA5916A
:10106000B491FC01E250FF4FC591D491662359F031
:101070006230B9F09FB7F8948C91832B8C939FBF0B
:10108000DF91CF9108952FB7F8948C91932F90957D
:1010900089238C938881892388832FBFDF91CF9107
:1010A00008952FB7F8948C91932F909589238C9362
:1010B0008881832B88832FBFE3CF893009F45EC0FA
:1010C0008A3070F08D3009F45FC08E30D0F08031FE
:1010D00009F46CC0813109F463C08F30C9F10895FF
:1010E000843009F445C08530B8F08730B9F18830D4
:1010F00048F58630A1F78091B0008F778093B000DB
:1011000008958B3009F446C08C30B0F08091A00077
:101110008F7D8093A0000895823031F1833030F4C8
:101120008130E9F684B58F7784BD08958091800081
:101130008F7780938000089580919000877F8093BF
:1011400090000895809190008F778093900008958B
:10115000809120018F778093200108958091B000C5
:101160008F7D8093B000089584B58F7D84BD0895F0
:10117000809180008F7D8093800008958091900001
:101180008F7D8093900008958091A000877F809349
:10119000A00008958091A0008F778093A00008950B
:1011A00080912001877F8093200108958091200104
:1011B0008F7D809320010895FF920F931F93F62E49
:1011C000482F50E0CA0182549E4FFC012491CA016D
:1011D00088589E4FFC0104914E5C5E4FFA011491B9
:1011E000112399F02223D1F4E12FF0E0EE0FFF1F3D
:1011F000E250FF4FA591B4919FB7F894FF2049F4B6
:101200008C91009580238C939FBF1F910F91FF902D
:1012100008958C91802B8C939FBFF7CF822F0E94D3
:101220005D08E2CF0F931F93482F50E0CA0182540C
:101230009E4FFC012491CA0188589E4FFC010491E5
:101240004E5C5E4FFA0114911123D1F02223F1F488
:10125000812F90E0880F991F885E9E4FFC01A59119
:10126000B4918C9120E030E0802321F4C9011F91DA
:101270000F91089521E030E0C9011F910F91089569
:1012800020E030E0C9011F910F910895822F0E9444
:101290005D08DECFA1E21A2EAA1BBB1BFD010DC00B
:1012A000AA1FBB1FEE1FFF1FA217B307E407F50716
:1012B00020F0A21BB30BE40BF50B661F771F881FF2
:1012C000991F1A9469F760957095809590959B0188
:1012D000AC01BD01CF010895EE0FFF1F0590F49101
:0812E000E02D1994F894FFCFF2
:1012E80000000000B0053607470579055805A30535
:00000001FF
